{
  "contractName": "Supplychain",
  "abi": [
    {
      "inputs": [],
      "payable": false,
      "stateMutability": "nonpayable",
      "type": "constructor"
    },
    {
      "anonymous": false,
      "inputs": [
        {
          "indexed": false,
          "internalType": "bytes32",
          "name": "projectId",
          "type": "bytes32"
        },
        {
          "indexed": false,
          "internalType": "bytes32",
          "name": "donationId",
          "type": "bytes32"
        },
        {
          "indexed": false,
          "internalType": "uint256",
          "name": "totalMoneyDonated",
          "type": "uint256"
        },
        {
          "indexed": false,
          "internalType": "uint256",
          "name": "moneyNotSent",
          "type": "uint256"
        },
        {
          "indexed": false,
          "internalType": "address",
          "name": "owner",
          "type": "address"
        }
      ],
      "name": "DonationReceived",
      "type": "event"
    },
    {
      "anonymous": false,
      "inputs": [
        {
          "indexed": false,
          "internalType": "bytes32",
          "name": "projectId",
          "type": "bytes32"
        },
        {
          "indexed": false,
          "internalType": "uint256",
          "name": "goalNumber",
          "type": "uint256"
        }
      ],
      "name": "GoalReached",
      "type": "event"
    },
    {
      "anonymous": false,
      "inputs": [
        {
          "indexed": false,
          "internalType": "bytes32",
          "name": "projectId",
          "type": "bytes32"
        },
        {
          "indexed": false,
          "internalType": "uint256",
          "name": "goalNumber",
          "type": "uint256"
        }
      ],
      "name": "GoalVerified",
      "type": "event"
    },
    {
      "anonymous": false,
      "inputs": [
        {
          "indexed": false,
          "internalType": "bytes32",
          "name": "projectId",
          "type": "bytes32"
        }
      ],
      "name": "ProjectCancelled",
      "type": "event"
    },
    {
      "anonymous": false,
      "inputs": [
        {
          "indexed": false,
          "internalType": "bytes32",
          "name": "projectId",
          "type": "bytes32"
        },
        {
          "indexed": false,
          "internalType": "uint256[]",
          "name": "goals",
          "type": "uint256[]"
        },
        {
          "indexed": false,
          "internalType": "address",
          "name": "owner",
          "type": "address"
        }
      ],
      "name": "ProjectCreated",
      "type": "event"
    },
    {
      "constant": true,
      "inputs": [],
      "name": "owner",
      "outputs": [
        {
          "internalType": "address",
          "name": "",
          "type": "address"
        }
      ],
      "payable": false,
      "stateMutability": "view",
      "type": "function"
    },
    {
      "constant": false,
      "inputs": [
        {
          "internalType": "bytes32",
          "name": "_projectId",
          "type": "bytes32"
        },
        {
          "internalType": "uint256[]",
          "name": "_goals",
          "type": "uint256[]"
        },
        {
          "internalType": "address",
          "name": "_owner",
          "type": "address"
        }
      ],
      "name": "createProject",
      "outputs": [],
      "payable": false,
      "stateMutability": "nonpayable",
      "type": "function"
    },
    {
      "constant": false,
      "inputs": [
        {
          "internalType": "bytes32",
          "name": "_projectId",
          "type": "bytes32"
        }
      ],
      "name": "cancelProject",
      "outputs": [],
      "payable": false,
      "stateMutability": "nonpayable",
      "type": "function"
    },
    {
      "constant": true,
      "inputs": [
        {
          "internalType": "bytes32",
          "name": "_projectId",
          "type": "bytes32"
        }
      ],
      "name": "getOwnerOfProject",
      "outputs": [
        {
          "internalType": "address",
          "name": "",
          "type": "address"
        }
      ],
      "payable": false,
      "stateMutability": "view",
      "type": "function"
    },
    {
      "constant": false,
      "inputs": [
        {
          "internalType": "bytes32",
          "name": "_projectId",
          "type": "bytes32"
        },
        {
          "internalType": "uint256",
          "name": "_value",
          "type": "uint256"
        },
        {
          "internalType": "bytes32",
          "name": "_donationId",
          "type": "bytes32"
        }
      ],
      "name": "makeDonation",
      "outputs": [],
      "payable": false,
      "stateMutability": "nonpayable",
      "type": "function"
    },
    {
      "constant": false,
      "inputs": [
        {
          "internalType": "bytes32",
          "name": "_projectId",
          "type": "bytes32"
        }
      ],
      "name": "releaseNextStage",
      "outputs": [],
      "payable": false,
      "stateMutability": "nonpayable",
      "type": "function"
    },
    {
      "constant": false,
      "inputs": [
        {
          "internalType": "bytes32",
          "name": "_projectId",
          "type": "bytes32"
        }
      ],
      "name": "unfreezeProject",
      "outputs": [],
      "payable": false,
      "stateMutability": "nonpayable",
      "type": "function"
    },
    {
      "constant": false,
      "inputs": [
        {
          "internalType": "uint256",
          "name": "_numerator",
          "type": "uint256"
        },
        {
          "internalType": "uint256",
          "name": "_denominator",
          "type": "uint256"
        }
      ],
      "name": "division",
      "outputs": [
        {
          "internalType": "uint256",
          "name": "",
          "type": "uint256"
        }
      ],
      "payable": false,
      "stateMutability": "nonpayable",
      "type": "function"
    }
  ],
  "bytecode": "0x608060405234801561001057600080fd5b5033600760006101000a81548173ffffffffffffffffffffffffffffffffffffffff021916908373ffffffffffffffffffffffffffffffffffffffff160217905550610e7b806100616000396000f3fe608060405234801561001057600080fd5b50600436106100885760003560e01c80638da5cb5b1161005b5780638da5cb5b146101ba578063acd8964f14610204578063e006805214610246578063e6c0aa0e1461029257610088565b80630f1af4391461008d5780634c718ebf146100bb5780636908ccd31461015e5780636d76b6e21461018c575b600080fd5b6100b9600480360360208110156100a357600080fd5b8101908080359060200190929190505050610300565b005b61015c600480360360608110156100d157600080fd5b8101908080359060200190929190803590602001906401000000008111156100f857600080fd5b82018360208201111561010a57600080fd5b8035906020019184602083028401116401000000008311171561012c57600080fd5b9091929391929390803573ffffffffffffffffffffffffffffffffffffffff1690602001909291905050506103b6565b005b61018a6004803603602081101561017457600080fd5b81019080803590602001909291905050506106bb565b005b6101b8600480360360208110156101a257600080fd5b8101908080359060200190929190505050610718565b005b6101c26107c9565b604051808273ffffffffffffffffffffffffffffffffffffffff1673ffffffffffffffffffffffffffffffffffffffff16815260200191505060405180910390f35b6102446004803603606081101561021a57600080fd5b810190808035906020019092919080359060200190929190803590602001909291905050506107ef565b005b61027c6004803603604081101561025c57600080fd5b8101908080359060200190929190803590602001909291905050506109a1565b6040518082815260200191505060405180910390f35b6102be600480360360208110156102a857600080fd5b81019080803590602001909291905050506109ba565b604051808273ffffffffffffffffffffffffffffffffffffffff1673ffffffffffffffffffffffffffffffffffffffff16815260200191505060405180910390f35b3373ffffffffffffffffffffffffffffffffffffffff16600760009054906101000a900473ffffffffffffffffffffffffffffffffffffffff1673ffffffffffffffffffffffffffffffffffffffff161461035a57600080fd5b6000610365826109ba565b9050610370826109fa565b61037b826000610a81565b7f69b5f4c3a68d3dc260899e15970442108526476a7d98ebece2aa33104e38338b826040518082815260200191505060405180910390a15050565b600760009054906101000a900473ffffffffffffffffffffffffffffffffffffffff1673ffffffffffffffffffffffffffffffffffffffff163373ffffffffffffffffffffffffffffffffffffffff161461041057600080fd5b610418610d70565b84816000018181525050838380806020026020016040519081016040528093929190818152602001838360200280828437600081840152601f19601f82011690508083019250505050505050816040018190525081816060019073ffffffffffffffffffffffffffffffffffffffff16908173ffffffffffffffffffffffffffffffffffffffff16815250506001816080019015159081151581525050600081602001818152505060008160a001818152505060018160c001901515908115158152505060008160e0019015159081151581525050600085908060018154018082558091505090600182039060005260206000200160009091929091909150555080600260008781526020019081526020016000206000820151816000015560208201518160010155604082015181600201908051906020019061055d929190610dd4565b5060608201518160030160006101000a81548173ffffffffffffffffffffffffffffffffffffffff021916908373ffffffffffffffffffffffffffffffffffffffff16021790555060808201518160030160146101000a81548160ff02191690831515021790555060a0820151816004015560c08201518160050160006101000a81548160ff02191690831515021790555060e08201518160050160016101000a81548160ff0219169083151502179055509050507fb9676d600f0d0bd81286101c0a16468b0f4132454e79f816ebb2a447cb64b9cb8585858560405180858152602001806020018373ffffffffffffffffffffffffffffffffffffffff1673ffffffffffffffffffffffffffffffffffffffff1681526020018281038252858582818152602001925060200280828437600081840152601f19601f8201169050808301925050509550505050505060405180910390a15050505050565b600760009054906101000a900473ffffffffffffffffffffffffffffffffffffffff1673ffffffffffffffffffffffffffffffffffffffff163373ffffffffffffffffffffffffffffffffffffffff161461071557600080fd5b50565b600760009054906101000a900473ffffffffffffffffffffffffffffffffffffffff1673ffffffffffffffffffffffffffffffffffffffff163373ffffffffffffffffffffffffffffffffffffffff161461077257600080fd5b6001600260008381526020019081526020016000206004016000828254019250508190555060006002600083815260200190815260200160002060050160016101000a81548160ff02191690831515021790555050565b600760009054906101000a900473ffffffffffffffffffffffffffffffffffffffff1681565b600115156002600085815260200190815260200160002060030160149054906101000a900460ff1615151461082357600080fd5b600061082f8484610ab3565b90506000818403905080600660003373ffffffffffffffffffffffffffffffffffffffff1673ffffffffffffffffffffffffffffffffffffffff16815260200190815260200160002060008781526020019081526020016000208190555060006002600087815260200190815260200160002090508281600101600082825401925050819055507fd43469e3010269f772fa0fe9008bc7f820841e01491e709faafd62f9a078728b8685878533604051808681526020018581526020018481526020018381526020018273ffffffffffffffffffffffffffffffffffffffff1673ffffffffffffffffffffffffffffffffffffffff1681526020019550505050505060405180910390a161094286610c73565b816001015410610999577f38b4cf64de25723780193f3e3af05ad72945e74b76843b610cba923b0ab2affe868260040154604051808381526020018281526020019250505060405180910390a161099886610ce4565b5b505050505050565b6000808284816109ad57fe5b0490508091505092915050565b60006002600083815260200190815260200160002060030160009054906101000a900473ffffffffffffffffffffffffffffffffffffffff169050919050565b60008090505b6005600083815260200190815260200160002080549050811015610a7d57610a7082600560008581526020019081526020016000208381548110610a4057fe5b9060005260206000200160009054906101000a900473ffffffffffffffffffffffffffffffffffffffff16610d16565b8080600101915050610a00565b5050565b806002600084815260200190815260200160002060030160146101000a81548160ff0219169083151502179055505050565b6000610abd610d70565b6002600085815260200190815260200160002060405180610100016040529081600082015481526020016001820154815260200160028201805480602002602001604051908101604052809291908181526020018280548015610b3f57602002820191906000526020600020905b815481526020019060010190808311610b2b575b505050505081526020016003820160009054906101000a900473ffffffffffffffffffffffffffffffffffffffff1673ffffffffffffffffffffffffffffffffffffffff1673ffffffffffffffffffffffffffffffffffffffff1681526020016003820160149054906101000a900460ff16151515158152602001600482015481526020016005820160009054906101000a900460ff161515151581526020016005820160019054906101000a900460ff1615151515815250509050600080905060008090505b826040015151811015610c4557808360400151510383604001518281518110610c2b57fe5b602002602001015102820191508080600101915050610c06565b5060008260a001518360400151510390506000610c64828702846109a1565b90508094505050505092915050565b6000806000905060008090505b60026000858152602001908152602001600020600401548111610cda57600260008581526020019081526020016000206002018181548110610cbe57fe5b9060005260206000200154820191508080600101915050610c80565b5080915050919050565b60016002600083815260200190815260200160002060050160016101000a81548160ff02191690831515021790555050565b6000600660008373ffffffffffffffffffffffffffffffffffffffff1673ffffffffffffffffffffffffffffffffffffffff1681526020019081526020016000206000848152602001908152602001600020819055505050565b604051806101000160405280600080191681526020016000815260200160608152602001600073ffffffffffffffffffffffffffffffffffffffff168152602001600015158152602001600081526020016000151581526020016000151581525090565b828054828255906000526020600020908101928215610e10579160200282015b82811115610e0f578251825591602001919060010190610df4565b5b509050610e1d9190610e21565b5090565b610e4391905b80821115610e3f576000816000905550600101610e27565b5090565b9056fea265627a7a72315820f7ef40c6c60fdb45bb2a673ccc38d36e69a778c31bee799b05d3ba122c8a065d64736f6c63430005100032",
  "source": "pragma solidity >=0.5.1;\n\ncontract Supplychain {\n\n\tstruct Project {\n\t\tbytes32 projectId;\n\t\tuint raised;\n    uint[] goals;\n    address owner;\n    bool validity;\n    uint lastGoal;\n    bool done;\n    bool freeze;\n\t}\n\n  struct Donation {\n    bytes32 projectId;\n    bytes32 donationId;\n    uint totalMoneyDonated;\n    uint moneyNotSent;\n    address owner;\n  }\n\n\tbytes32[] projectIdList;\n  bytes32[] donationIdList;\n\n\tmapping (bytes32 => Project) projects;\n  mapping (bytes32 => Donation) donations;\n  mapping (address => bytes32[]) donationsByAddress;\n  mapping (bytes32 => address[]) projectDonors; \n\n  // AppCoins appc;\n\n  // Given an user and a project, returns the total of money this user donated\n  // to the project and hasn't been received yet. This money \n  mapping (address => mapping (bytes32 => uint)) userProjectBalance;\n\n  address public owner;\n\n  // Given an user address, and an project id, returns whether the project is autorized to interact with the contract\n  mapping (address => mapping(bytes32 => bool)) autorizedProjects;\n\n  mapping (address => mapping(bytes32 => uint)) freezedDonations;\n\n\t// This notifies clients about a newly created project\n\tevent ProjectCreated(bytes32 projectId, uint[] goals, address owner);\n\n  event DonationReceived(bytes32 projectId, bytes32 donationId, uint totalMoneyDonated, uint moneyNotSent, address owner);\n\n  event GoalReached(bytes32 projectId, uint goalNumber); \n\n  event GoalVerified(bytes32 projectId, uint goalNumber);\n\n  event ProjectCancelled(bytes32 projectId);\n\n    /**\n    * Constructor function\n    */\n  constructor () public {\n      owner = msg.sender;\n  }\n\n\t/**\n\t* Creates a campaign for a certain package name with\n\t* a defined price and budget and emits a CampaignCreated event\n\t*/\n\tfunction createProject (bytes32 _projectId, uint[] calldata _goals, address _owner) external {\n    require(msg.sender == owner);\n\t\tProject memory newProject;\n\n    newProject.projectId = _projectId;\n    newProject.goals = _goals;\n    newProject.owner = _owner;\n    newProject.validity = true;\n    newProject.raised = 0;\n    newProject.lastGoal = 0;\n    newProject.done = true;\n    newProject.freeze = false;\n\n\t\tprojectIdList.push(_projectId);\n\t\tprojects[_projectId] = newProject;\n\n    emit ProjectCreated(_projectId, _goals, _owner);\n\t}\n\n\tfunction cancelProject (bytes32 _projectId) external {\n    // Only contract owner can cancel a campaign\n\t\trequire (owner == msg.sender);\n\n\t\taddress projectOwner = getOwnerOfProject(_projectId);\n\t\t// appc.transfer(campaignOwner, budget);\n\n\n\t\tprojectClawback(_projectId);\n\t\tsetCampaignValidity(_projectId,false);\n\n    emit ProjectCancelled(_projectId);\n\t}\n\n  // Obtains the quantity necessary to overpass next stage\n  function getNextGoal (bytes32 _projectId) internal returns (uint) {\n    uint sum = 0;\n    for(uint i = 0; i <= projects[_projectId].lastGoal; i++){\n      sum += projects[_projectId].goals[i];\n    }\n    return sum;\n  }\n\n  function projectClawback(bytes32 _projectId) internal {\n    for (uint i=0; i< projectDonors[_projectId].length; i++){\n      userClawback(_projectId, projectDonors[_projectId][i]);\n    }\n  }\n\n  function userClawback (bytes32 _projectId, address _user) internal {\n    // TODO: send money back to user\n\n    userProjectBalance[_user][_projectId] = 0;\n  }\n\n\tfunction setCampaignValidity (bytes32 _projectId, bool _boolean) internal {\n    projects[_projectId].validity = _boolean;\n\t}\n\n  function getOwnerOfProject (bytes32 _projectId) public view returns(address) {\n\t\treturn projects[_projectId].owner;\n\t}\n\n  function makeDonation (bytes32 _projectId, uint _value, bytes32 _donationId) external {\n\n    // Real Donation represents the fraction of money that is initially given to the project.\n    require(projects[_projectId].validity == true);\n    uint realDonation = calculateProportionalShare(_projectId, _value);\n    uint lockedDonation = _value - realDonation;\n\n    // The rest of the money is locked\n    userProjectBalance[msg.sender][_projectId] = lockedDonation;\n\n    Project storage currentProject = projects[_projectId];\n\n    // We add current money to the project\n    currentProject.raised += realDonation;\n\n    // TODO: send money back to charity\n    // appc.transfer(msg.sender, realDonation);\n\n    emit DonationReceived(_projectId, _donationId, _value, lockedDonation, msg.sender);\n\n    if (currentProject.raised >= getNextGoal(_projectId)){\n      emit GoalReached(_projectId, currentProject.lastGoal);\n      freezeDonations(_projectId);\n    }\n  }\n\n  function freezeDonations(bytes32 _projectId) internal{\n    projects[_projectId].freeze = true;\n  }\n\n  function releaseNextStage(bytes32 _projectId) external {\n    require (msg.sender == owner);\n  \n  }\n\n  // For realising the funds, we need a way to decide how much we unblock for the project.\n  // We are going to calculate a Weighted arithmetic mean, according to the last goal we\n  // we have achieved.\n  function calculateProportionalShare(bytes32 _projectId, uint _value) internal returns (uint) {\n    Project memory currentProject = projects[_projectId];\n    uint sum = 0;\n    for (uint i=0; i < currentProject.goals.length; i++){\n      sum += currentProject.goals[i] * (currentProject.goals.length - i);\n    }\n    uint factor = currentProject.goals.length - currentProject.lastGoal; \n    uint quotient = division(_value * factor, sum);\n    return quotient;\n  } \n\n  // The first time invoked, we have to take into account that we need to consider all previous goals.\n  function calculateInitialProportionalShare(bytes32 _projectId, uint _value) internal returns (uint) {\n    Project memory currentProject = projects[_projectId];\n    uint sum = 0;\n    uint partial_sum = 0;\n    for (uint i=0; i < currentProject.goals.length; i++){\n      sum += currentProject.goals[i] * (currentProject.goals.length - i);\n    }\n    for (uint j = 0; j < currentProject.lastGoal; j++){\n      partial_sum += currentProject.goals[j] * (currentProject.goals.length - j);\n    }\n    uint quotient = division(_value * partial_sum, sum);\n    return quotient;\n  } \n\n  function unfreezeProject(bytes32 _projectId) external {\n    require (msg.sender == owner);\n    projects[_projectId].lastGoal += 1;\n    projects[_projectId].freeze = false;\n  }\n\n\tfunction division(uint _numerator, uint _denominator) public returns (uint) {\n      uint _quotient = _numerator / _denominator;\n      return _quotient;\n    }\n}\n",
  "sourcePath": "C:\\Users\\Rares Andrei\\Desktop\\supplychain\\contracts\\Supplychain.sol",
  "compiler": {
    "name": "solc",
    "version": "0.5.16+commit.9c3226ce.Emscripten.clang"
  },
  "schemaVersion": "3.0.23",
  "updatedAt": "2020-02-05T00:26:10.557Z",
  "networkType": "ethereum",
  "devdoc": {
    "methods": {}
  },
  "userdoc": {
    "methods": {
      "constructor": "Constructor function",
      "createProject(bytes32,uint256[],address)": {
        "notice": "Creates a campaign for a certain package name with a defined price and budget and emits a CampaignCreated event"
      }
    }
  }
}