{
  "contractName": "Supplychain",
  "abi": [
    {
      "inputs": [],
      "payable": false,
      "stateMutability": "nonpayable",
      "type": "constructor"
    },
    {
      "anonymous": false,
      "inputs": [
        {
          "indexed": false,
          "internalType": "uint256",
          "name": "_projectId",
          "type": "uint256"
        },
        {
          "indexed": false,
          "internalType": "uint256",
          "name": "_donationId",
          "type": "uint256"
        },
        {
          "indexed": false,
          "internalType": "uint256",
          "name": "_totalMoneyDonated",
          "type": "uint256"
        },
        {
          "indexed": false,
          "internalType": "address",
          "name": "_owner",
          "type": "address"
        }
      ],
      "name": "DonationReceived",
      "type": "event"
    },
    {
      "anonymous": false,
      "inputs": [
        {
          "indexed": false,
          "internalType": "uint256",
          "name": "_projectId",
          "type": "uint256"
        },
        {
          "indexed": false,
          "internalType": "uint256",
          "name": "_goalNumber",
          "type": "uint256"
        }
      ],
      "name": "GoalReached",
      "type": "event"
    },
    {
      "anonymous": false,
      "inputs": [
        {
          "indexed": false,
          "internalType": "uint256",
          "name": "_projectId",
          "type": "uint256"
        },
        {
          "indexed": false,
          "internalType": "uint256",
          "name": "_goalNumber",
          "type": "uint256"
        }
      ],
      "name": "GoalVerified",
      "type": "event"
    },
    {
      "anonymous": false,
      "inputs": [
        {
          "indexed": false,
          "internalType": "uint256",
          "name": "_projectId",
          "type": "uint256"
        },
        {
          "indexed": false,
          "internalType": "uint256",
          "name": "_value",
          "type": "uint256"
        },
        {
          "indexed": false,
          "internalType": "address",
          "name": "_owner",
          "type": "address"
        }
      ],
      "name": "MoneyReleased",
      "type": "event"
    },
    {
      "anonymous": false,
      "inputs": [
        {
          "indexed": false,
          "internalType": "uint256",
          "name": "_projectId",
          "type": "uint256"
        },
        {
          "indexed": false,
          "internalType": "uint256",
          "name": "_value",
          "type": "uint256"
        },
        {
          "indexed": false,
          "internalType": "address",
          "name": "_receiver",
          "type": "address"
        }
      ],
      "name": "MoneyWithdrawnFromProject",
      "type": "event"
    },
    {
      "anonymous": false,
      "inputs": [
        {
          "indexed": false,
          "internalType": "uint256",
          "name": "_projectId",
          "type": "uint256"
        }
      ],
      "name": "ProjectCancelled",
      "type": "event"
    },
    {
      "anonymous": false,
      "inputs": [
        {
          "indexed": false,
          "internalType": "uint256",
          "name": "_projectId",
          "type": "uint256"
        },
        {
          "indexed": false,
          "internalType": "uint256[]",
          "name": "_goals",
          "type": "uint256[]"
        },
        {
          "indexed": false,
          "internalType": "address",
          "name": "_owner",
          "type": "address"
        }
      ],
      "name": "ProjectCreated",
      "type": "event"
    },
    {
      "constant": true,
      "inputs": [],
      "name": "owner",
      "outputs": [
        {
          "internalType": "address",
          "name": "",
          "type": "address"
        }
      ],
      "payable": false,
      "stateMutability": "view",
      "type": "function"
    },
    {
      "constant": false,
      "inputs": [
        {
          "internalType": "uint256",
          "name": "_projectId",
          "type": "uint256"
        },
        {
          "internalType": "uint256[]",
          "name": "_goals",
          "type": "uint256[]"
        },
        {
          "internalType": "address",
          "name": "_owner",
          "type": "address"
        }
      ],
      "name": "createProject",
      "outputs": [],
      "payable": false,
      "stateMutability": "nonpayable",
      "type": "function"
    },
    {
      "constant": false,
      "inputs": [
        {
          "internalType": "uint256",
          "name": "_projectId",
          "type": "uint256"
        }
      ],
      "name": "cancelProject",
      "outputs": [],
      "payable": false,
      "stateMutability": "nonpayable",
      "type": "function"
    },
    {
      "constant": true,
      "inputs": [
        {
          "internalType": "uint256",
          "name": "_projectId",
          "type": "uint256"
        }
      ],
      "name": "getOwnerOfProject",
      "outputs": [
        {
          "internalType": "address",
          "name": "",
          "type": "address"
        }
      ],
      "payable": false,
      "stateMutability": "view",
      "type": "function"
    },
    {
      "constant": false,
      "inputs": [
        {
          "internalType": "uint256",
          "name": "_projectId",
          "type": "uint256"
        },
        {
          "internalType": "uint256",
          "name": "_value",
          "type": "uint256"
        },
        {
          "internalType": "uint256",
          "name": "_donationId",
          "type": "uint256"
        }
      ],
      "name": "makeDonation",
      "outputs": [],
      "payable": false,
      "stateMutability": "nonpayable",
      "type": "function"
    },
    {
      "constant": false,
      "inputs": [
        {
          "internalType": "uint256",
          "name": "_projectId",
          "type": "uint256"
        }
      ],
      "name": "releaseNextStage",
      "outputs": [],
      "payable": false,
      "stateMutability": "nonpayable",
      "type": "function"
    },
    {
      "constant": false,
      "inputs": [
        {
          "internalType": "uint256",
          "name": "_projectId",
          "type": "uint256"
        },
        {
          "internalType": "uint256",
          "name": "_value",
          "type": "uint256"
        }
      ],
      "name": "withdrawFromProject",
      "outputs": [],
      "payable": false,
      "stateMutability": "nonpayable",
      "type": "function"
    },
    {
      "constant": false,
      "inputs": [
        {
          "internalType": "uint256",
          "name": "_projectId",
          "type": "uint256"
        },
        {
          "internalType": "uint256",
          "name": "_value",
          "type": "uint256"
        },
        {
          "internalType": "address",
          "name": "_owner",
          "type": "address"
        }
      ],
      "name": "releaseFundsFromClient",
      "outputs": [],
      "payable": false,
      "stateMutability": "nonpayable",
      "type": "function"
    },
    {
      "constant": true,
      "inputs": [
        {
          "internalType": "uint256",
          "name": "_projectId",
          "type": "uint256"
        }
      ],
      "name": "getTotallyRaisedMoneyInProject",
      "outputs": [
        {
          "internalType": "uint256",
          "name": "",
          "type": "uint256"
        }
      ],
      "payable": false,
      "stateMutability": "view",
      "type": "function"
    },
    {
      "constant": true,
      "inputs": [
        {
          "internalType": "uint256",
          "name": "_projectId",
          "type": "uint256"
        }
      ],
      "name": "getCurrentFundingMoneyInProjectAccount",
      "outputs": [
        {
          "internalType": "uint256",
          "name": "",
          "type": "uint256"
        }
      ],
      "payable": false,
      "stateMutability": "view",
      "type": "function"
    }
  ],
  "bytecode": "0x608060405234801561001057600080fd5b5033600660006101000a81548173ffffffffffffffffffffffffffffffffffffffff021916908373ffffffffffffffffffffffffffffffffffffffff1602179055506110f9806100616000396000f3fe608060405234801561001057600080fd5b506004361061009e5760003560e01c806346ff9fce1161006657806346ff9fce1461025c57806360b6b58f146102b45780638da5cb5b146102f6578063d2db939014610340578063f88ee9841461036e5761009e565b806324941147146100a35780632b4d2c76146100d15780632bbee9eb1461013f5780632d3cd6e51461017757806342adbf471461021a575b600080fd5b6100cf600480360360208110156100b957600080fd5b81019080803590602001909291905050506103b0565b005b6100fd600480360360208110156100e757600080fd5b8101908080359060200190929190505050610458565b604051808273ffffffffffffffffffffffffffffffffffffffff1673ffffffffffffffffffffffffffffffffffffffff16815260200191505060405180910390f35b6101756004803603604081101561015557600080fd5b810190808035906020019092919080359060200190929190505050610498565b005b6102186004803603606081101561018d57600080fd5b8101908080359060200190929190803590602001906401000000008111156101b457600080fd5b8201836020820111156101c657600080fd5b803590602001918460208302840111640100000000831117156101e857600080fd5b9091929391929390803573ffffffffffffffffffffffffffffffffffffffff1690602001909291905050506105c4565b005b6102466004803603602081101561023057600080fd5b81019080803590602001909291905050506108d7565b6040518082815260200191505060405180910390f35b6102b26004803603606081101561027257600080fd5b810190808035906020019092919080359060200190929190803573ffffffffffffffffffffffffffffffffffffffff1690602001909291905050506108f7565b005b6102f4600480360360608110156102ca57600080fd5b81019080803590602001909291908035906020019092919080359060200190929190505050610b2c565b005b6102fe610d1c565b604051808273ffffffffffffffffffffffffffffffffffffffff1673ffffffffffffffffffffffffffffffffffffffff16815260200191505060405180910390f35b61036c6004803603602081101561035657600080fd5b8101908080359060200190929190505050610d42565b005b61039a6004803603602081101561038457600080fd5b8101908080359060200190929190505050610e7c565b6040518082815260200191505060405180910390f35b3373ffffffffffffffffffffffffffffffffffffffff16600660009054906101000a900473ffffffffffffffffffffffffffffffffffffffff1673ffffffffffffffffffffffffffffffffffffffff161461040a57600080fd5b61041381610e9c565b61041e816000610f23565b7fe3805ed669490875ae87c5c8b1ad6ecca0e5e67305a833926d0d4317c4822fc0816040518082815260200191505060405180910390a150565b60006002600083815260200190815260200160002060040160009054906101000a900473ffffffffffffffffffffffffffffffffffffffff169050919050565b60011515600560003373ffffffffffffffffffffffffffffffffffffffff1673ffffffffffffffffffffffffffffffffffffffff168152602001908152602001600020600084815260200190815260200160002060009054906101000a900460ff1615151461050657600080fd5b600260008381526020019081526020016000206002015481111561052957600080fd5b8060026000848152602001908152602001600020600201600082825403925050819055507f47e8d5e0efb7633a8a10c821f39eea52d3cf6f6e1af747b559b1846d84ff3e2e828233604051808481526020018381526020018273ffffffffffffffffffffffffffffffffffffffff1673ffffffffffffffffffffffffffffffffffffffff168152602001935050505060405180910390a15050565b600660009054906101000a900473ffffffffffffffffffffffffffffffffffffffff1673ffffffffffffffffffffffffffffffffffffffff163373ffffffffffffffffffffffffffffffffffffffff161461061e57600080fd5b60008490806001815401808255809150509060018203906000526020600020016000909192909190915055506040518061010001604052808581526020016000815260200160008152602001848480806020026020016040519081016040528093929190818152602001838360200280828437600081840152601f19601f8201169050808301925050505050505081526020018273ffffffffffffffffffffffffffffffffffffffff1681526020016001151581526020016000815260200160001515815250600260008681526020019081526020016000206000820151816000015560208201518160010155604082015181600201556060820151816003019080519060200190610731929190611052565b5060808201518160040160006101000a81548173ffffffffffffffffffffffffffffffffffffffff021916908373ffffffffffffffffffffffffffffffffffffffff16021790555060a08201518160040160146101000a81548160ff02191690831515021790555060c0820151816005015560e08201518160060160006101000a81548160ff0219169083151502179055509050506001600560008373ffffffffffffffffffffffffffffffffffffffff1673ffffffffffffffffffffffffffffffffffffffff168152602001908152602001600020600086815260200190815260200160002060006101000a81548160ff0219169083151502179055507f91b416f1a707642867ef6482b3fe75cdbbba245f5b456724182339217d84f1418484848460405180858152602001806020018373ffffffffffffffffffffffffffffffffffffffff1673ffffffffffffffffffffffffffffffffffffffff1681526020018281038252858582818152602001925060200280828437600081840152601f19601f8201169050808301925050509550505050505060405180910390a150505050565b600060026000838152602001908152602001600020600101549050919050565b600660009054906101000a900473ffffffffffffffffffffffffffffffffffffffff1673ffffffffffffffffffffffffffffffffffffffff163373ffffffffffffffffffffffffffffffffffffffff16148061097e57508073ffffffffffffffffffffffffffffffffffffffff163373ffffffffffffffffffffffffffffffffffffffff16145b61098757600080fd5b600015156002600085815260200190815260200160002060060160009054906101000a900460ff161515146109bb57600080fd5b600760008273ffffffffffffffffffffffffffffffffffffffff1673ffffffffffffffffffffffffffffffffffffffff168152602001908152602001600020600084815260200190815260200160002054821115610a1857600080fd5b60006002600085815260200190815260200160002090508281600101600082825401925050819055508281600201600082825401925050819055507fbbb95e858663ed7490f325810750ff0a1bb0dfc194d3e25c4e86d68de74ea851848484604051808481526020018381526020018273ffffffffffffffffffffffffffffffffffffffff1673ffffffffffffffffffffffffffffffffffffffff168152602001935050505060405180910390a1610acf84610f55565b816001015410610b26577f85b3ed4e45559c5f41fb220aa4ac86a440dfc741f219089de694242940aaa09c848260050154604051808381526020018281526020019250505060405180910390a1610b2584610fc6565b5b50505050565b600115156002600085815260200190815260200160002060040160149054906101000a900460ff16151514610b6057600080fd5b600181908060018154018082558091505090600182039060005260206000200160009091929091909150555060405180608001604052808481526020018281526020018381526020013373ffffffffffffffffffffffffffffffffffffffff168152506003600085815260200190815260200160002060008201518160000155602082015181600101556040820151816002015560608201518160030160006101000a81548173ffffffffffffffffffffffffffffffffffffffff021916908373ffffffffffffffffffffffffffffffffffffffff16021790555090505081600760003373ffffffffffffffffffffffffffffffffffffffff1673ffffffffffffffffffffffffffffffffffffffff1681526020019081526020016000206000858152602001908152602001600020600082825401925050819055507f627f561eb3650f8c1000dd182548c499d1c65674e29ef0b37e49a6aae6b28e8b83828433604051808581526020018481526020018381526020018273ffffffffffffffffffffffffffffffffffffffff1673ffffffffffffffffffffffffffffffffffffffff16815260200194505050505060405180910390a1505050565b600660009054906101000a900473ffffffffffffffffffffffffffffffffffffffff1681565b600660009054906101000a900473ffffffffffffffffffffffffffffffffffffffff1673ffffffffffffffffffffffffffffffffffffffff163373ffffffffffffffffffffffffffffffffffffffff1614610d9c57600080fd5b600115156002600083815260200190815260200160002060060160009054906101000a900460ff16151514610dd057600080fd5b7f24ecad0dd0cc177d483dd29954ec0af17324feb7c51735c69bcf61e38729bcb9816002600084815260200190815260200160002060050154604051808381526020018281526020019250505060405180910390a16001600260008381526020019081526020016000206005016000828254019250508190555060006002600083815260200190815260200160002060060160006101000a81548160ff02191690831515021790555050565b600060026000838152602001908152602001600020600201549050919050565b60008090505b6004600083815260200190815260200160002080549050811015610f1f57610f1282600460008581526020019081526020016000208381548110610ee257fe5b9060005260206000200160009054906101000a900473ffffffffffffffffffffffffffffffffffffffff16610ff8565b8080600101915050610ea2565b5050565b806002600084815260200190815260200160002060040160146101000a81548160ff0219169083151502179055505050565b6000806000905060008090505b60026000858152602001908152602001600020600501548111610fbc57600260008581526020019081526020016000206003018181548110610fa057fe5b9060005260206000200154820191508080600101915050610f62565b5080915050919050565b60016002600083815260200190815260200160002060060160006101000a81548160ff02191690831515021790555050565b6000600760008373ffffffffffffffffffffffffffffffffffffffff1673ffffffffffffffffffffffffffffffffffffffff1681526020019081526020016000206000848152602001908152602001600020819055505050565b82805482825590600052602060002090810192821561108e579160200282015b8281111561108d578251825591602001919060010190611072565b5b50905061109b919061109f565b5090565b6110c191905b808211156110bd5760008160009055506001016110a5565b5090565b9056fea265627a7a72315820360a3332bf044d2222d8c8abd33ea0a6eb4e0d666f6b4a5475feceb3d0b06e9e64736f6c63430005100032",
  "source": "pragma solidity >=0.5.1;\n\ncontract Supplychain {\n\n\tstruct Project {\n\t\tuint projectId;\n\t\tuint totallyRaised;\n    uint currentFunds;\n    uint[] goals;\n    address owner;\n    bool validity;\n    uint lastGoal;\n    bool freeze;\n\t}\n\n  struct Donation {\n    uint projectId;\n    uint donationId;\n    uint totalMoneyDonated;\n    address owner;\n  }\n\n\tuint[] projectIdList;\n  uint[] donationIdList;\n\n\tmapping (uint => Project) projects;\n  mapping (uint => Donation) donations;\n  mapping (uint => address[]) projectDonors; \n\n  // As it's not the main part of the application, we'll just assume token transactions\n  // will be performed with some ERC20 Token\n  // MyToken appc;\n\n  \n  // Given an user address, and an project id, returns whether the project is autorized to withdraw from the contract\n  mapping (address => mapping(uint => bool)) autorizedProjects;\n\n  address public owner;\n\n  // Given an user and a project, returns the total of money this user donated\n  // to the project and hasn't been unfreezed yet.\n  mapping (address => mapping (uint => uint)) userProjectBalance;\n\n\n\tevent ProjectCreated(uint _projectId, uint[] _goals, address _owner);\n\n  event ProjectCancelled(uint _projectId);\n\n  event DonationReceived(uint _projectId, uint _donationId, uint _totalMoneyDonated, address _owner);\n\n  event GoalReached(uint _projectId, uint _goalNumber); \n\n  event GoalVerified(uint _projectId, uint _goalNumber);\n\n  event MoneyWithdrawnFromProject(uint _projectId, uint _value, address _receiver);\n\n  event MoneyReleased(uint _projectId, uint _value, address _owner);\n\n\n  /**\n  * Constructor function\n  */\n  constructor () public {\n      owner = msg.sender;\n  }\n\n\t/**\n\t* Creates a campaign for a certain package name with\n\t* a defined price and budget and emits a CampaignCreated event\n\t*/\n\tfunction createProject (uint _projectId, uint[] calldata _goals, address _owner) external {\n    require(msg.sender == owner);\n\n\t\tprojectIdList.push(_projectId);\n\t\tprojects[_projectId] = Project(_projectId, 0, 0, _goals, _owner, true, 0, false);\n\n    autorizedProjects[_owner][_projectId] = true;\n\n    emit ProjectCreated(_projectId, _goals, _owner);\n\t}\n\n\tfunction cancelProject (uint _projectId) external {\n\t\trequire (owner == msg.sender);\n\n\t\tprojectClawback(_projectId);\n\t\tsetProjectValidity(_projectId,false);\n\n    emit ProjectCancelled(_projectId);\n\t}\n\n  // Obtains the quantity necessary to overpass next stage\n  function getNextGoal (uint _projectId) internal view returns (uint) {\n    uint sum = 0;\n    for(uint i = 0; i <= projects[_projectId].lastGoal; i++){\n      sum += projects[_projectId].goals[i];\n    }\n    return sum;\n  }\n\n  function projectClawback(uint _projectId) internal {\n    for (uint i=0; i< projectDonors[_projectId].length; i++){\n      userClawback(_projectId, projectDonors[_projectId][i]);\n    }\n  }\n\n  function userClawback (uint _projectId, address _user) internal {\n    // appc.transfer(userProjectBalance[_user][_projectId])\n    userProjectBalance[_user][_projectId] = 0;\n  }\n\n\tfunction setProjectValidity (uint _projectId, bool _boolean) internal {\n    projects[_projectId].validity = _boolean;\n\t}\n\n  function getOwnerOfProject (uint _projectId) public view returns(address) {\n\t\treturn projects[_projectId].owner;\n\t}\n\n  // When a donation is created, money is not delivered inmmediately. We just register it\n  // and ajust the balance for the user.\n  function makeDonation (uint _projectId, uint _value, uint _donationId) external {\n\n    require(projects[_projectId].validity == true);\n\n    // require(balanceOf(msg.sender)) >= value)\n\n    donationIdList.push(_donationId);\n\n\t\tdonations[_projectId] = Donation(_projectId, _donationId, _value, msg.sender);\n\n    // There's no problem with initialization, as it is directly initialized to zero\n    userProjectBalance[msg.sender][_projectId] += _value;\n\n    emit DonationReceived(_projectId, _donationId, _value, msg.sender);\n  }\n\n  function freezeDonations(uint _projectId) internal{\n    projects[_projectId].freeze = true;\n  }\n\n  function releaseNextStage(uint _projectId) external {\n    require (msg.sender == owner);\n    require (projects[_projectId].freeze == true);\n    emit GoalVerified(_projectId, projects[_projectId].lastGoal);\n    projects[_projectId].lastGoal += 1;\n    projects[_projectId].freeze = false;\n  }\n\n  function withdrawFromProject(uint _projectId, uint _value) external {\n    require (autorizedProjects[msg.sender][_projectId] == true);\n    require (_value <= projects[_projectId].currentFunds);\n\n    projects[_projectId].currentFunds -= _value;\n    // for each client, invoke function appc.transfer(...)\n    emit MoneyWithdrawnFromProject(_projectId, _value, msg.sender);\n  }\n\n  // Both the owner or the client can decide to unlock part of the owner's pending donation\n  function releaseFundsFromClient(uint _projectId, uint _value, address _owner) external{\n    require(msg.sender == owner || msg.sender == _owner);\n    require(projects[_projectId].freeze == false);\n    require(_value <= userProjectBalance[_owner][_projectId]);\n    Project storage currentProject = projects[_projectId];\n    currentProject.totallyRaised += _value;\n    currentProject.currentFunds += _value;\n\n    emit MoneyReleased(_projectId, _value, _owner);\n\n    // We have to check if enough money has been raised to next goal, so \n    // that freeze donations.\n    if (currentProject.totallyRaised >= getNextGoal(_projectId)){\n      emit GoalReached(_projectId, currentProject.lastGoal);\n      freezeDonations(_projectId);\n    }\n  }\n\n  function getTotallyRaisedMoneyInProject(uint _projectId) public view returns(uint){\n    return projects[_projectId].totallyRaised;\n  }\n\n  function getCurrentFundingMoneyInProjectAccount(uint _projectId) public view returns(uint){\n    return projects[_projectId].currentFunds;\n  }\n}\n",
  "sourcePath": "C:\\Users\\Rares Andrei\\Desktop\\supplychain\\contracts\\Supplychain.sol",
  "compiler": {
    "name": "solc",
    "version": "0.5.16+commit.9c3226ce.Emscripten.clang"
  },
  "schemaVersion": "3.0.23",
  "updatedAt": "2020-02-05T07:40:16.318Z",
  "networkType": "ethereum",
  "devdoc": {
    "methods": {}
  },
  "userdoc": {
    "methods": {
      "constructor": "Constructor function",
      "createProject(uint256,uint256[],address)": {
        "notice": "Creates a campaign for a certain package name with a defined price and budget and emits a CampaignCreated event"
      }
    }
  }
}